:020000040800F2
:100000000000022095620008195B00081B5B0008D5
:100010001D5B00081F5B0008215B0008000000005A
:10002000000000000000000000000000235B00084A
:10003000255B000800000000275B0008295B000822
:10004000E5620008E5620008E5620008E562000874
:10005000E5620008E5620008E5620008E562000864
:10006000E5620008E5620008E5620008E562000854
:10007000E5620008E5620008E5620008E562000844
:10008000E5620008E5620008E56200080000000083
:10009000000000000000000000000000E562000811
:1000A000E5620008E5620008E5620008E562000814
:1000B000E5620008E5620008E5620008395B0008B7
:1000C000455B0008E5620008E5620008E56200089B
:1000D000E5620008E5620008E56200080000000033
:1000E000E5620008E5620008E56200080000000023
:1000F000000000000000000000000000E5620008B1
:1001000000000000E5620008E5620008515B00089D
:1001100000000000000000000000000000000000DF
:10012000E5620008E5620008E5620008E562000893
:10013000E562000800000000000000000000000070
:100140000000000000000000000000005D5B0008EF
:10015000E5620008E5620008E5620008E562000863
:10016000E5620008E56200080000000000000000F1
:10017000000000000000000000000000000000007F
:1001800000000000E5620008000000000000000020
:08019000E5620008E5620008C9
:1001A00010B5054C237833B9044B13B10448AFF3B1
:1001B00000800123237010BDF40700200000000020
:1001C0009C94000808B5034B1BB103490348AFF3E7
:1001D000008008BD00000000F80700209C94000883
:1001E000034613F8012B002AFBD1181A0138704777
:1001F00001F0FF01102A2BDB10F0070F08D010F8D8
:10020000013B013A8B422DD010F0070F42B3F6D1DB
:10021000F0B441EA012141EA014122F007047FF0F4
:1002200000070023F0E80256083C85EA010586EA4B
:10023000010685FA47F5A3FA87F586FA47F6A5FA87
:1002400087F68EB9EED1F0BC01F0FF0102F0070293
:1002500032B110F8013B013A83EA010313B1F8D13E
:100260000020704701387047002D06BF354603381F
:10027000073815F0010F07D1013015F4807F02BF58
:10028000013015F4C03F0130F0BC0138704700BFA9
:1002900081F0004102E000BF83F0004330B54FEA37
:1002A00041044FEA430594EA050F08BF90EA020FA4
:1002B0001FBF54EA000C55EA020C7FEA645C7FEA37
:1002C000655C00F0E2804FEA5454D4EB5555B8BF5A
:1002D0006D420CDD2C4480EA020281EA030382EACB
:1002E000000083EA010180EA020281EA0303362D5D
:1002F00088BF30BD11F0004F4FEA01314FF4801C30
:100300004CEA113102D0404261EB410113F0004F41
:100310004FEA03334CEA133302D0524263EB4303F8
:1003200094EA050F00F0A780A4F10104D5F1200E96
:100330000DDB02FA0EFC22FA05F2801841F10001F1
:1003400003FA0EF2801843FA05F359410EE0A5F1C5
:1003500020050EF1200E012A03FA0EFC28BF4CF0F6
:10036000020C43FA05F3C01851EBE37101F00045AC
:1003700007D54FF0000EDCF1000C7EEB00006EEBB9
:100380000101B1F5801F1BD3B1F5001F0CD3490843
:100390005FEA30004FEA3C0C04F101044FEA44529A
:1003A00012F5800F80F09A80BCF1004F08BF5FEA21
:1003B000500C50F1000041EB045141EA050130BD01
:1003C0005FEA4C0C404141EB010111F4801FA4F1A4
:1003D0000104E9D191F0000F04BF01460020B1FAF9
:1003E00081F308BF2033A3F10B03B3F120020CDA31
:1003F0000C3208DD02F1140CC2F10C0201FA0CF00F
:1004000021FA02F10CE002F11402D8BFC2F1200C73
:1004100001FA02F120FA0CFCDCBF41EA0C01904029
:10042000E41AA2BF01EB0451294330BD6FEA040472
:100430001F3C1CDA0C340EDC04F11404C4F120025D
:1004400020FA04F001FA02F340EA030021FA04F36F
:1004500045EA030130BDC4F10C04C4F1200220FAC6
:1004600002F001FA04F340EA0300294630BD21FA04
:1004700004F0294630BD94F0000F83F4801306BFCA
:1004800081F480110134013D4EE77FEA645C18BFBE
:100490007FEA655C29D094EA050F08BF90EA020F55
:1004A00005D054EA000C04BF1946104630BD91EA4D
:1004B000030F1EBF0021002030BD5FEA545C05D150
:1004C0004000494128BF41F0004130BD14F580048F
:1004D0003CBF01F5801130BD01F0004545F0FE4103
:1004E00041F470014FF0000030BD7FEA645C1ABF38
:1004F000194610467FEA655C1CBF0B46024650EA6F
:10050000013406BF52EA033591EA030F41F400219A
:1005100030BD00BF90F0000F04BF0021704730B520
:100520004FF4806404F132044FF000054FF00001F5
:1005300050E700BF90F0000F04BF0021704730B5B6
:100540004FF4806404F1320410F0004548BF40428B
:100550004FF000013EE700BF42004FEAE2014FEAE0
:1005600031014FEA02701FBF12F07F4393F07F4FBB
:1005700081F06051704792F0000F14BF93F07F4FED
:10058000704730B54FF4607401F0004521F0004130
:1005900020E700BF50EA010208BF704730B54FF0B6
:1005A00000050AE050EA010208BF704730B511F0BB
:1005B000004502D5404261EB41014FF4806404F1F3
:1005C00032045FEA915C3FF4DCAE4FF003025FEA75
:1005D000DC0C18BF03325FEADC0C18BF033202EBFD
:1005E000DC02C2F1200300FA03FC20FA02F001FA57
:1005F00003FE40EA0E0021FA02F11444C1E600BFF6
:1006000070B54FF0FF0C4CF4E06C1CEA11541DBFA8
:100610001CEA135594EA0C0F95EA0C0F00F0DEF873
:100620002C4481EA030621EA4C5123EA4C5350EA58
:10063000013518BF52EA033541F4801143F48013A9
:1006400038D0A0FB02CE4FF00005E1FB02E506F03A
:100650000042E0FB03E54FF00006E1FB03569CF08F
:10066000000F18BF4EF0010EA4F1FF04B6F5007F95
:1006700064F5407404D25FEA4E0E6D4146EB060607
:1006800042EAC62141EA55514FEAC52040EA5E5090
:100690004FEACE2EB4F1FD0C88BFBCF5E06F1ED83A
:1006A000BEF1004F08BF5FEA500E50F1000041EB71
:1006B000045170BD06F0004646EA010140EA02001E
:1006C00081EA0301B4EB5C04C2BFD4EB0C0541EA40
:1006D000045170BD41F480114FF0000E013C00F355
:1006E000AB8014F1360FDEBF002001F0004170BD79
:1006F000C4F10004203C35DA0C341BDC04F1140492
:10070000C4F1200500FA05F320FA04F001FA05F21D
:1007100040EA020001F0004221F0004110EBD370EA
:1007200021FA04F642EB06015EEA430E08BF20EA16
:10073000D37070BDC4F10C04C4F1200500FA04F3B9
:1007400020FA05F001FA04F240EA020001F000414B
:1007500010EBD37041F100015EEA430E08BF20EABE
:10076000D37070BDC4F1200500FA05F24EEA020E06
:1007700020FA04F301FA05F243EA020321FA04F035
:1007800001F0004121FA04F220EA020000EBD370EC
:100790005EEA430E08BF20EAD37070BD94F0000FEC
:1007A0000FD101F00046400041EB010111F4801F20
:1007B00008BF013CF7D041EA060195F0000F18BFD1
:1007C000704703F00046520043EB030313F4801F0D
:1007D00008BF013DF7D043EA0603704794EA0C0FC7
:1007E0000CEA135518BF95EA0C0F0CD050EA4106DD
:1007F00018BF52EA4306D1D181EA030101F000415A
:100800004FF0000070BD50EA410606BF1046194681
:1008100052EA430619D094EA0C0F02D150EA01368D
:1008200013D195EA0C0F05D152EA03361CBF1046CE
:1008300019460AD181EA030101F0004141F0FE416D
:1008400041F470014FF0000070BD41F0FE4141F4F1
:10085000780170BD70B54FF0FF0C4CF4E06C1CEAF1
:1008600011541DBF1CEA135594EA0C0F95EA0C0FA6
:1008700000F0A7F8A4EB050481EA030E52EA033561
:100880004FEA013100F088804FEA03334FF0805582
:1008900045EA131343EA12634FEA022245EA1115AF
:1008A00045EA10654FEA00260EF000419D4208BF60
:1008B000964244F1FD0404F5407402D25B084FEA0D
:1008C0003202B61A65EB03055B084FEA32024FF4B9
:1008D00080104FF4002CB6EB020E75EB030E22BF16
:1008E000B61A754640EA0C005B084FEA3202B6EBD6
:1008F000020E75EB030E22BFB61A754640EA5C0085
:100900005B084FEA3202B6EB020E75EB030E22BF14
:10091000B61A754640EA9C005B084FEA3202B6EB15
:10092000020E75EB030E22BFB61A754640EADC00D4
:1009300055EA060E18D04FEA051545EA16754FEA36
:1009400006164FEAC30343EA52734FEAC2025FEA54
:100950001C1CC0D111F4801F0BD141EA00014FF0E3
:1009600000004FF0004CB6E711F4801F04BF0143B4
:100970000020B4F1FD0C88BFBCF5E06F3FF6AFAED0
:10098000B5EB030C04BFB6EB020C5FEA500C50F160
:10099000000041EB045170BD0EF0004E4EEA1131E3
:1009A00014EB5C04C2BFD4EB0C0541EA045170BDEA
:1009B00041F480114FF0000E013C90E645EA060E2E
:1009C0008DE60CEA135594EA0C0F08BF95EA0C0F5C
:1009D0003FF43BAF94EA0C0F0AD150EA01347FF4A4
:1009E00034AF95EA0C0F7FF425AF104619462CE77B
:1009F00095EA0C0F06D152EA03353FF4FDAE1046DE
:100A0000194622E750EA410618BF52EA43067FF42E
:100A1000C5AE50EA41047FF40DAF52EA43057FF4BE
:100A2000EBAE12E74FF0FF3C06E000BF4FF0010CC9
:100A300002E000BF4FF0010C4DF804CD4FEA410C2D
:100A40007FEA6C5C4FEA430C18BF7FEA6C5C1BD0FA
:100A500001B050EA410C0CBF52EA430C91EA030F7B
:100A600002BF90EA020F0020704710F1000F91EAD8
:100A7000030F58BF994208BF90422CBFD8176FEAA6
:100A8000E37040F0010070474FEA410C7FEA6C5C74
:100A900002D150EA013C07D14FEA430C7FEA6C5C7B
:100AA000D6D152EA033CD3D05DF8040B704700BFA7
:100AB0008446104662468C461946634600E000BFF5
:100AC00001B5FFF7B7FF002848BF10F1000F01BDC7
:100AD0004DF808EDFFF7F4FF0CBF012000205DF892
:100AE00008FB00BF4DF808EDFFF7EAFF34BF012017
:100AF00000205DF808FB00BF4DF808EDFFF7E0FFB0
:100B000094BF012000205DF808FB00BF4DF808ED00
:100B1000FFF7CEFF94BF012000205DF808FB00BF67
:100B20004DF808EDFFF7C4FF34BF012000205DF849
:100B300008FB00BF4FEA410C7FEA6C5C02D150EA2F
:100B4000013C0AD14FEA430C7FEA6C5C02D152EAC5
:100B5000033C02D14FF0000070474FF00100704796
:100B60004FEA410212F5001215D211D56FF47873D5
:100B7000B3EB625212D94FEAC12343F0004343EA78
:100B8000505311F0004F23FA02F018BF4042704753
:100B90004FF00000704750EA013005D111F00040DD
:100BA00008BF6FF0004070474FF00000704700BF73
:100BB0004FEA4102B2F1E04324BFB3F5001CDCF17F
:100BC000FE5C0DD901F0004C4FEAC0024CEA5070B7
:100BD000B2F1004F40EB830008BF20F001007047E6
:100BE00011F0804F21D113F13872BCBF01F00040E9
:100BF000704741F480114FEA5252C2F11802C2F11B
:100C0000200C10FA0CF320FA02F018BF40F001009B
:100C10004FEAC1234FEAD32303FA0CFC40EA0C004D
:100C200023FA02F34FEA4303CCE77FEA625307D18A
:100C300050EA01331EBF4FF0FE4040F440007047C1
:100C400001F0004040F0FE4040F40000704700BF5B
:100C500053B94AB9002908BF00281CBF4FF0FF3123
:100C60004FF0FF3000F07AB9ADF1080C6DE904CE19
:100C700000F006F8DDF804E0DDE9022304B0704777
:100C80002DE9F0478C460D460446089E002B51D1B5
:100C90008A4217466DD9B2FA82FEBEF1000F0BD020
:100CA000CEF1200C01FA0EF520FA0CFC02FA0EF738
:100CB0004CEA050C00FA0EF44FEA174A250CBCFB6F
:100CC000FAF81FFA87F90AFB18CC45EA0C4508FB2D
:100CD00009F3AB420AD9ED1908F1FF3280F0238104
:100CE000AB4240F22081A8F102083D44ED1AA4B2C3
:100CF000B5FBFAF00AFB105544EA054400FB09F97C
:100D0000A14509D9E41900F1FF3380F00A81A1451A
:100D100040F2078102383C44A4EB090440EA084051
:100D20000021002E61D024FA0EF400233460736099
:100D3000BDE8F0878B4207D9002E54D0002186E809
:100D400021000846BDE8F087B3FA83F1002940F09E
:100D50008E80AB4202D3824200F2FA80841A65EBA5
:100D600003050120AC46002E3FD086E81010BDE8F8
:100D7000F08712B90127B7FBF2F7B7FA87FEBEF189
:100D8000000F34D1EB1B3A0C1FFA87FC0121B3FB97
:100D9000F2F8250C02FB183345EA03450CFB08F377
:100DA000AB4207D9ED1908F1FF3002D2AB4200F295
:100DB000D1808046ED1AA3B2B5FBF2F002FB1055CC
:100DC00043EA05440CFB00FCA44507D9E41900F1F3
:100DD000FF3302D2A44500F2B8801846A4EB0C04FD
:100DE00040EA08409DE731463046BDE8F087CEF145
:100DF000200405FA0EF307FA0EF720FA04F83A0C6D
:100E000025FA04F448EA0308B4FBF2F14FEA184566
:100E100002FB11441FFA87FC45EA044501FB0CF371
:100E2000AB4200FA0EF409D9ED1901F1FF3080F060
:100E30008A80AB4240F2878002393D44EB1A1FFAA8
:100E400088F5B3FBF2F002FB103345EA034500FBE3
:100E50000CF3AB4207D9ED1900F1FF386FD2AB426A
:100E60006DD902383D44EB1A40EA01418FE7C1F1E8
:100E7000200722FA07F88B4005FA01F448EA030339
:100E800020FA07FE4FEA134CFD404EEA040EB5FB74
:100E9000FCF94FEA1E440CFB19551FFA83F844EA8B
:100EA000054509FB08F4AC4202FA01F200FA01FA26
:100EB00008D9ED1809F1FF3043D2AC4241D9A9F16C
:100EC00002091D442D1B1FFA8EFEB5FBFCF00CFB26
:100ED00010554EEA054400FB08F8A04507D9E41870
:100EE00000F1FF3529D2A04527D902381C4440EA39
:100EF0000940A4EB0804A0FB02894C45C6464D46B8
:100F000015D312D056B1BAEB0E0364EB050404FA04
:100F100007F7CB401F43CC40376074600021BDE829
:100F2000F0871846F8E69046E0E6C245EAD2B8EB0C
:100F3000020E69EB03050138E4E72846D7E740468F
:100F400091E78146BEE7014678E702383C4445E731
:100F5000084608E7A8F102083D442BE7704700BFA8
:100F600038B50E4A0E4B054618784FF47A73B3FB2A
:100F7000F0F31068B0FBF3F000F0E4F9044658B960
:100F80000F2D09D8024629464FF0FF3000F09AF99C
:100F9000044B20461D6038BD012038BD3C010020B7
:100FA000000000200400002008B50B4B1A6842F432
:100FB00000721A601A6842F480621A601A6842F479
:100FC00080721A60032000F06BF90020FFF7C8FF61
:100FD00004F072FD002008BD003C0240034A044BAF
:100FE00011681B780B441360704700BF5C08002039
:100FF00000000020014B1868704700BF5C0800200B
:1010000038B50446FFF7F6FF631C1CBF054B1B7881
:10101000054618BFE418FFF7EDFF401B8442FAD8DD
:1010200038BD00BF0000002010B50446002800F0C5
:101030009980036C23B9436480F83C3004F000FAD3
:10104000236CDB0600F18C80236C23F4885323F09F
:10105000020343F002032364434B5A6822F44032F4
:101060005A605A6861680A435A60236821695A685D
:1010700022F480725A605A6842EA01225A605A6821
:10108000A16822F040725A605A680A435A609A680E
:10109000E16822F400629A609A680A439A603349D0
:1010A000A26A8A4250D0996821F07061996099686B
:1010B0000A439A609A68E16A22F040529A609A68FC
:1010C0000A439A609A68A16922F002029A609A68BB
:1010D00042EA41029A60226A002A3DD05A68616A57
:1010E00042F400625A605A6822F460425A605A68B8
:1010F000013942EA41325A60DA6AE16922F4700247
:10110000DA62DA6A013942EA0152DA629A68216BDC
:1011100022F400729A609A6842EA41229A609A68C0
:10112000616922F480629A609A68002042EA812212
:101130009A606064236C23F0030343F0010323648B
:10114000002384F83C3010BD9A6822F070629A60E7
:101150009A6822F04052B4E75A6822F40062CAE763
:101160000120EDE7012010BD002301400100000F28
:10117000F7B50023019390F83C30012B6AD00D683D
:1011800004688A680123092D80F83C30AEB22AD960
:1011900006EB4603E7681E3B4FF0070E0EFA03FE10
:1011A00027EA0E07E760E76802FA03F33B43E360D0
:1011B0004A68062A4FEA820325D81344676B591FF1
:1011C0001F238B4027EA03036363626B06FA01F176
:1011D000114361632D4B9C4234D0002380F83C3096
:1011E000184603B0F0BD276905EB45034FF0070E25
:1011F0000EFA03FE27EA0E072761276902FA03F3B6
:101200003B432361D4E70C2A0ED81344216BA3F18E
:1012100023021F23934021EA03032363236B06FA6F
:1012200002F21A432263D5E71344E16A413B1F22CD
:101230009A4021EA0202E262E26A06FA03F11143ED
:10124000E162C7E7122D07D1114A536843F48003C6
:101250005360C2E70220C4E70E4B9D4201D0112D1E
:10126000BBD10B494A689D4242F400024A60B4D1A6
:10127000094B0A4A1B68B3FBF2F20A23534301935A
:10128000019B002BA9D0019B013BF8E70020014006
:1012900000230140120000103C01002040420F00DA
:1012A000074AD36823F4E0631B041B0C43F0BF63BD
:1012B000000243F4003300F4E0600343D36070475E
:1012C00000ED00E0174B30B5DC68C4F30224C4F134
:1012D0000703251D042B28BF0423062D4FF001050D
:1012E00005FA03F303F1FF338CBF033C00241940DC
:1012F000A14005FA04F4013C2240002842EA010220
:101300004FEA0212AFBF00F1604000F00F00064B41
:10131000D2B2A5BF00F56140D2B21A5480F80023C2
:1013200030BD00BF00ED00E014ED00E042090123F4
:1013300000F01F0003FA00F0014B43F82200704751
:1013400000E100E00138B0F1807F0AD2064B074A85
:101350005860F02182F823100020072298601A605C
:1013600070470120704700BF10E000E000ED00E092
:10137000044B1A6804280CBF42F0040222F0040255
:101380001A60704710E000E0704708B5FFF7FCFFF7
:1013900008BD90F83530022B03D08023436501202F
:1013A00070470268052380F83530136823F0010385
:1013B00013600020704700002DE9F04F85B00B68E6
:1013C000DFF89C81644A01934FF001090023019CDE
:1013D00009FA03F707EA0406B74240F0AD804C680B
:1013E00024F0100ABAF1020F16D14FEAD30C00EB29
:1013F0008C0C03F0070BDCF820504FEA8B0B4FF0FE
:101400000F0E0EFA0BFE25EA0E0E0D6905FA0BF50E
:1014100045EA0E05CCF820504FEA430C0325D0F8DE
:1014200000B005FA0CF5ED4304F0030E0BEA050BD2
:101430000EFA0CFE0AF1FF3A4EEA0B0EBAF1010F5A
:101440000095C0F800E015D8D0F808E005EA0E0EC7
:10145000CD6805FA0CFA4AEA0E0EC0F808E0D0F89A
:1014600004E02EEA0707C4F3001E0EFA03FE4EEA5C
:1014700007074760C768009D3D408F6807FA0CF773
:101480003D43C560E50057D54FF0000BCDF80CB0DB
:10149000D8F84470314D47F48047C8F84470D8F804
:1014A000447007F480470397039F23F0030707F175
:1014B000804707F59C3703F0030CD7F808A04FEAE4
:1014C0008C0C4FF00F0E0EFA0CFEA8422AEA0E0EFC
:1014D00039D005F58065A84237D005F58065A8426A
:1014E00035D005F58065A84233D005F58065A84262
:1014F00014BF0725042505FA0CF545EA0E05BD6065
:101500001568F74314F4803F0CBF3D403543156028
:10151000556814F4003F0CBF3D4035435560956855
:1015200014F4801F0CBF3D4035439560D568A4027C
:1015300054BF3D403543D5600133102B7FF447AF96
:1015400005B0BDE8F08F5D46D5E70125D3E702255C
:10155000D1E70325CFE700BF003C01400000024077
:10156000003802400AB1816170470904FBE7026854
:10157000536913F480630DD06FF4806353610423C7
:10158000036420220023036380F83C3080F83D2070
:1015900001207047184670472DE9F8430446174666
:1015A0009946C1F307488EB22568B8F1010F0CBF08
:1015B0006B69AB6936EA030314BF0120002008B948
:1015C000BDE8F8836B695A0512D52B6843F40073A4
:1015D0002B606FF480636B6104232364202200235B
:1015E000236384F83C3084F83D200120BDE8F88373
:1015F0007B1CD9D04FB900232022236384F83C30D0
:1016000084F83D200320BDE8F883FFF7F3FCA0EB4E
:1016100009008742C8D2EEE72DE9F843089E044648
:1016200090461F46C1F307498DB22368B9F1010FF7
:101630000CBF5B699B6935EA03030CBF01230023E0
:10164000434502D00020BDE8F8837B1CEDD05FB994
:1016500000232022236384F83C3084F83D200320BB
:1016600084F83E30BDE8F883FFF7C4FC801B874256
:10167000DBD2EDE770B504460D46164623685B697C
:101680001B0601D5002070BD2046FFF770FFA8B9EA
:101690006A1CF3D065B9236C43F020032364202235
:1016A0000023236384F83C3084F83D20032070BD80
:1016B000FFF7A0FC801B8542E0D2ECE7012070BD63
:1016C00070B504460D4616462068436913F0400382
:1016D00001D0002070BD4269D2060BD56FF0100218
:1016E00042612022236484F83C302363012084F883
:1016F0003D2070BD5DB9236C43F02003236420239B
:1017000084F83D30002384F83C30032070BDFFF79F
:1017100071FC801B8542D7D2EDE770B504460D46BB
:10172000164623685B695B0701D5002070BD204623
:10173000FFF71DFFA8B96A1CF3D065B9236C43F00D
:101740002003236420220023236384F83C3084F8A0
:101750003D20032070BDFFF74DFC801B8542E0D289
:10176000ECE7012070BD000070B50446002862D08F
:1017700090F83D3003F0FF021BB980F83C2003F0E5
:1017800053FF22682D4E2E4D242384F83D301368DC
:1017900023F00103136001F00DFE63682268B0FBC3
:1017A000F5F5B34284BF4FF496716943556091BF1C
:1017B000691C4FF47A75B1FBF5F10131B342116246
:1017C00021D85B00B0FBF3F0C0F30B03032B98BFF1
:1017D0000420216AE369D0610B431360E168236947
:1017E0000B439360A16963690B43D360136843F0B3
:1017F0000103136000202023206484F83D3020631F
:1018000084F83E0070BDA16849B903EB4303B0FB07
:10181000F3F0C0F30B0363B140F40040D9E71921A2
:101820004B43B0FBF3F0C0F30B0313B140F4404063
:10183000CFE70120CDE7012070BD00BFA0860100E9
:1018400040420F002DE9FF4104461F460D469046D9
:10185000FFF7D0FB94F83D30202B064604D002253C
:10186000284604B0BDE8F0810090192301225D49AB
:101870002046FFF7D1FE0028F1D194F83C30012B2F
:10188000EDD0012384F83C3023681A68D2075EBF8C
:101890001A6842F001021A601A6822F400621A60A3
:1018A000212284F83D20102284F83E200022226468
:1018B000A2F580326785E262628D2285E26AC4F811
:1018C0002480042A04D0012A02D012F5803F04D1DA
:1018D0001A6842F480721A6002E0226B122AF7D072
:1018E00000960A9B00224FF001112046FFF794FE5C
:1018F00028BB23692268B3F5804F12D105F0FE059D
:10190000156133460A9A38492046FFF745FE0546D9
:10191000A0B9236803905A6903929B690393039BC0
:1019200050E0EB1103F0060343F0F00313612F497D
:101930000A9A33462046FFF72FFE48B1236C236CEA
:10194000042B4FF0000307D184F83C30012587E7D2
:101950002368EDB21D61D4E784F83C3003257FE7AE
:1019600032460A992046FFF785FE40B1236C042BCE
:10197000F4D12268136843F400731360E6E7616AE8
:101980002068228D4B1C63620B780361638D013BE1
:101990009BB263854769531E9BB27F0723850AD597
:1019A0004BB18B1C63624B780361638D013B9BB22F
:1019B000023A6385228532460A992046FFF7ADFE3A
:1019C0000028D3D1238D002BCAD121680A6842F4A4
:1019D00000720A60202284F83D2084F83C3084F8AC
:1019E0003E303DE702001000020001000800010047
:1019F0002DE9F043044689B098460D469146109F64
:101A0000FFF7F8FA94F83D30202B064604D0022563
:101A1000284609B0BDE8F0830090192301229C49B3
:101A20002046FFF7F9FD0028F1D194F83C30012B56
:101A3000EDD0012384F83C3023681A68D2075EBFDA
:101A40001A6842F001021A601A6822F400621A60F1
:101A5000222284F83D20102284F83E2000222264B5
:101A6000A2F58032A4F82A80E262628D2285E26AC1
:101A70001968C4F8249041F48061042A196004D0E4
:101A8000012A02D012F5803F04D11A6842F4807214
:101A90001A6002E0226B112AF7D000963B46002222
:101AA0004FF001112046FFF7B7FD00284AD1236906
:101AB000B3F5804F236836D145F00105EDB21D61C5
:101AC00033463A4673492046FFF766FD054600282F
:101AD00037D1228D2368002A66D0012A77D11A686F
:101AE00022F480621A6004955A6904929A690492F9
:101AF000049A1A6842F400721A60DFF8A081238DFC
:101B0000002B5BD0032B00F2CB80012B7AD1324625
:101B100039462046FFF7D4FD002800F09080236C62
:101B2000202B16D13EE04FEAE51808F0060848F0F1
:101B3000F0021A61584933463A462046FFF72CFD19
:101B400048B1236C236C042B4FF0000328D184F898
:101B50003C3001255CE723684E49EDB21D613A46F1
:101B600033462046FFF718FD02460028E9D12368D6
:101B7000079059690791996907910799196841F484
:101B800080711960204600963B464FF00111FFF727
:101B900043FD0028D6D1226848F0F10313618FE796
:101BA00084F83C30032533E703955A6903929A6918
:101BB0000392039A1A6842F400721A60202384F890
:101BC0003D30002384F83E3084F83C3020E7022A80
:101BD0001A680DD122F480621A601A6842F4006219
:101BE0001A6005955A6905929B690593059B84E7E0
:101BF00042F480621A6006955A6906929B690693C0
:101C0000069B7AE7022B00963B464FF000024146C6
:101C1000204622D1FFF700FD0028C3D123681A68AF
:101C200042F400721A60626A1B69511C616213708F
:101C3000238D013B2385638D013B9BB26385636AE2
:101C40005A1C6262226812691A70238D013B238537
:101C5000638D013B9BB2638551E7FFF7DDFC0246D4
:101C600000289FD12368196821F480611960616A96
:101C70001B69481C60620B70238D0096013B238515
:101C8000638D013B9BB2638541463B462046C1E7DD
:101C90000200100002000100080001000400010021
:101CA000324639462046FFF70BFD00287FF437AF58
:101CB000636A5A1C6262226812691A70238D226854
:101CC000013B2385638D013B9BB2638553695B07B1
:101CD0007FF515AF636A591C6162B4E770477047BE
:101CE000704770477047704770477047704770473C
:101CF00090F83D30293B012B10B50368044639D8D4
:101D000000220263282280F83D201A6822F4006233
:101D10001A605A6812F4006254D05A68606B22F458
:101D200000625A6090F83530012B394B31D0036591
:101D3000FFF72FFB50B12268606B136823F001039B
:101D40001360202384F83D30036D984794F83D30AC
:101D5000282B0ED1236C5B070BD52E4BE362202280
:101D600000232363204684F83D2084F83E30FFF7AB
:101D7000BAFF10BD90F83D20602A05D05A681205C0
:101D80005CBF202280F83D200022226384F83E20A0
:101D9000BBE7A06B0365FFF7FCFA0028D6D02268EA
:101DA0005369580604D5636A1269591C61621A7036
:101DB0002268A06B136823F001031360202384F8CA
:101DC0003D30C1E794F83D10602914D1202184F8FA
:101DD0003D1022645A69510604D5626A1B69511C80
:101DE000616213702268136823F0010313602046B8
:101DF000FFF77DFFAAE75A69520604D5626A1B699C
:101E0000511C616213702046FFF770FF9EE700BF10
:101E1000212600080000FFFF0368F0B59D6959699D
:101E20005A6890F83E40E4B2102C8DB002D0402C9D
:101E300040F0558211F0011F66D0970564D590F8E7
:101E40003E40402C43D1046D002C3BD1446C04F047
:101E5000FE041C61984E994C2E400C40002E00F060
:101E60009F81974D0D40002D00F06681550540F192
:101E70006381002C40F0608190F83D20058D90F842
:101E80003E10C46AD2B2C9B2002D40F00581212AA9
:101E900040F00481042C00F06C81082C00F0698172
:101EA00014F5803F00F065815A6822F4E0625A60C0
:101EB0001123036380F83E50202380F83D30FFF764
:101EC0000DFFF6E0446C44F00104E4B2C1E704699C
:101ED000B4F5804F05D190F83D40212C446CF2D1EF
:101EE000B5E7046D34B9446CE41104F0060444F021
:101EF000F004AEE7046D012CACD1446CE41104F0A5
:101F0000060444F0F104A4E76E4C0C401CB19605A5
:101F100001D5446CD9E76C4C0C40002C9AD0940548
:101F200098D590F83E40C66AD0F830E090F83D7001
:101F3000222FE4B240F0A880076D47B9402C06D1AB
:101F400001975C6901949C690194019C82E7046D8E
:101F50008CB90769B7F5404F0DD102945C690294C2
:101F60009C690294029C1C6844F480741C60046D9B
:101F7000013404656EE7448DA4B254B903945C69DE
:101F800003949C690394039C1C6844F400741C60D3
:101F900019E0448DA4B2012C42D116F5803F1BD12B
:101FA0001C6824F480641C605C6814F400640CD029
:101FB0001C6824F480641C60002404945C6904940C
:101FC0009C690494049C0024D3E705945C690594FF
:101FD0009C690594059CD7E7042E15D0082E13D0D4
:101FE000BEF1120F10D0C46A022C1C6814BF24F476
:101FF000806444F480641C60002406945C69069448
:102000009C690694069CDEE71C6824F480641C60CE
:10201000002407945C6907949C690794079CB3E7C4
:10202000448DA4B2022C1CD1C46A022C1C681DBFB2
:1020300024F480641C601C6844F4806418BF44F479
:1020400000641C605C68270542BF5C6844F48054EF
:102050005C60002408945C6908949C690894089C5E
:10206000B1E71C6844F480641C605C68260542BFCC
:102070005C6844F480545C60002409945C690994B1
:102080009C690994099C9EE700240A945C690A945F
:102090009C690A940A9CDDE6212A03D0402908D1D4
:1020A000222A06D1428D92B282B95A6822F4806205
:1020B0005A600DB0F0BD00BF040010000400010024
:1020C00080000100080001000200010090F83E209D
:1020D000402A27D1026D7AB9C26C012A826C05D1DF
:1020E000D2B21A61036D02330365E2E7C2F307223D
:1020F0001A61036D0133F7E7026D012A02D1826C88
:10210000D2B2F5E7026D022AD3D190F83D20222AFF
:1021100004D11A6842F480721A60CAE790F83D2030
:10212000212AC6D1426A511C416212781A61438D3C
:10213000013B9BB24385BCE7002CBAD09405B8D5CF
:10214000C16A90F83D20212AB3D1428D92B2002A73
:10215000E8D104290DD008290BD011F5803F08D013
:10216000596821F4E06159601123036380F83E202F
:10217000A2E65A6822F4E0625A601A6842F40072D9
:102180001A6000232022036380F83D2090F83E204F
:1021900080F83E30402A7FF492AEFFF7A5FD88E735
:1021A000904D0D40002D41D051053FD5002C3DD123
:1021B00090F83D20222A7FF47CAF428D92B2032A10
:1021C00013D9426A1B69511C41621370438D013B54
:1021D0009BB24385438D9BB2032B7FF46AAF0268A9
:1021E000536823F48063536063E7012A3FF661AFCD
:1021F0001A6822F480621A605A6822F4E0625A6017
:10220000426A1B69511C41621370438D013B9BB2B2
:102210004385202380F83D30046390F83E3080F8F9
:102220003E40402B58D1FFF760FD42E7002C3FF4C1
:1022300040AF97057FF53DAFC16A428D92B2042A47
:10224000426A08D1596821F480615960511C1B69A8
:10225000416213706BE7448DA4B2032C08D1596816
:1022600021F480615960196821F480611960EDE7FB
:10227000448DA4B2022CE9D10139012919689DBF0E
:1022800021F480611960196841F4007198BF41F42C
:10229000807119601B69511C41621370438D013BB1
:1022A0009BB24385436A5A1C4262026812691A70E3
:1022B000438D0268013B9BB24385536823F440730E
:1022C0005360202380F83D300023036390F83E20C4
:1022D00080F83E30402AA5E7FFF701FDE9E6424CD1
:1022E0000C4074B196050CD599699B6981F0040185
:1022F0001D06C1F3800154BF8289028BFFF7F2FCF7
:10230000D7E63A4C0C40002C74D0940572D590F866
:102310003D20596821F4E061596000210B91596911
:102320000B91196841F0010119600B99196821F4AA
:102330008061196059680905D2B20CD590F83D103A
:10234000222903D090F83D102A2929D1816B0968F0
:10235000496889B24185418D89B2E1B159694F0718
:1023600008D5416A1B694C1C44620B70438D013BCC
:102370009BB2438501684B695E0608D5436A0969CB
:102380005C1C44621970438D013B9BB24385036C16
:1023900043F004030364036C23B1FFF7A9FC88E650
:1023A000416BD4E7A2F1280102290AD8104AC2627F
:1023B0002022036380F83D2080F83E30FFF793FC35
:1023C00077E6036B222B02D0222A7FF472AE002321
:1023D0002022036380F83D2080F83E30FFF781FC27
:1023E00067E600BF4000010002000100100001008C
:1023F0000000FFFF394E3A4C2E400C40002E36D0E4
:10240000384D0D403DB3550525D524BB90F83D1002
:10241000428D92B2C9B2002A3FF44BAE426A541CBC
:10242000446212781A61428D013A92B24285428D1D
:1024300092B2002A7FF43DAE29297FF43AAE5A6861
:1024400022F480625A6021230363282380F83D3000
:10245000FFF746FC2DE6002C3FF42BAE94057FF5EC
:1024600028AE428D92B2002A7FF45CAE21E61E4D6A
:102470000D4035B3510524D51CBB90F83D20418D4E
:1024800089B2D2B200293FF414AE416A1B694C1CD8
:1024900044620B70438D013B9BB24385438D9BB2DD
:1024A000002B7FF406AE2A2A7FF403AE026853683D
:1024B00023F48063536022230363282380F83D3094
:1024C0008CE7002C3FF4F5AD92057FF5F2AD428D1F
:1024D00092B2002A3FF4EDAD426AB7E60400100064
:1024E000040001008000010040000100F8B503680D
:1024F000494A5E695D681642044608D0E80506D57B
:10250000226C42F0010222646FF480725A6116F468
:10251000813F08D0E90506D5226C42F00202226410
:102520006FF400725A6116F4823F36D0EA0534D552
:1025300094F83E70618D94F83D20206B202F89B275
:10254000D2B258D1002956D102F0F701212903D087
:10255000282A50D121284ED194F83D20E16A04293F
:10256000D2B201D008292CD1282A2AD12B4AE262E2
:102570005A6822F4E0625A606FF480625A611A6805
:1025800022F480621A60002320222363204684F80C
:102590003D2084F83E30FFF7A6FB16F4843F09D0B7
:1025A000EB0507D5236C43F00803236423686FF41D
:1025B00000625A61236C73B32046BDE8F840FFF710
:1025C00097BB212A23D11549E1622263202284F896
:1025D0003D20002284F83E205A6822F4E0625A60CE
:1025E0006FF480625A611A6822F480621A60204691
:1025F000FFF776FBD1E7226C42F00402226494F8E4
:102600003E20102A02BF1A6842F400721A606FF46A
:1026100080625A61C1E7F8BD000101000000FFFFC0
:10262000806B08B50368416B1A6822F480621A60F7
:10263000002242850A65816B0A6590F83D10602989
:102640004FF0200180F83D1080F83E2007D1026451
:102650001A6822F001021A60FFF749FB08BD1A68E8
:1026600022F001021A60FFF741FB08BDF0B50646F3
:102670008BB0002864D00323344680F8B93303F0CC
:102680006DFC54F8100B01F0FDFA0FCC6D460FC530
:102690000FCC0FC594E8030085E80300371D97E8C9
:1026A0000E00306801F0AEFA0021306801F0F0FA57
:1026B00000213346324606F110040125084682F80F
:1026C0003810D18701310F2982F8395082F83B0048
:1026D00010645064D06402F11C02F0D10022D6F8DC
:1026E00000E0114602F1400083F8F821DA870EEB92
:1026F000800001320F2A83F8F91183F8FB11C3F827
:102700000012C3F80412C3F80C12416003F11C0359
:10271000E8D10FCC6D460FC50FCC0FC594E8030070
:1027200085E80300704697E80E0001F0C9FA01231E
:1027300086F8B933306801F0E6FD00200BB0F0BD3B
:102740000120FBE790F8B833012B10B504460CD0FC
:10275000012380F8B833006801F0C9FD206801F05A
:102760008BFA002084F8B80310BD022010BD0000D1
:102770002DE9F04FD0F8009087B00446484601F0AC
:10278000FCFD0290002840F02E81206801F0C7FD7A
:10279000002800F02881206801F0C1FD850748BFAE
:1027A0002268206842BF536903F00203536101F0BD
:1027B000B6FD10F400250AD0206801F0B4FD09F53B
:1027C00030660746A2460025002F40F00F812068A2
:1027D00001F0A5FD41030BD5206801F0ACFD2646B4
:1027E000039009F510680025039B002B40F03F8102
:1027F000206801F094FD00280DDAD9F8043823F0A0
:102800000103C9F80438204603F01EFC226853690E
:1028100003F000435361206801F081FD06050BD5EC
:10282000D9F80838D80702D5204603F0F5FB22680E
:10283000536903F400635361206801F070FDC10423
:1028400037D509F500667368206823F001037360CB
:10285000102101F0D1FA616809F51063FF22029896
:10286000884240F092814FF0FF33B361F36943F047
:102870000113F361236B002B00F08F81D6F88430B5
:1028800043F00B03C6F88430736C43F00B0373649E
:10289000D9F80038217C206823F4FE63C9F8003899
:1028A00004F56F7201F088FD2268536903F48053C8
:1028B0005361206801F033FD82041DD5206801F0CA
:1028C00060FD2068C36823F47053C36001F0BDFA53
:1028D000002840F06B812268E0604FF40073636170
:1028E000D36843F41053D360204603F084FB22687E
:1028F000536903F400535361206801F010FDC306CF
:102900002BD52268936923F010039361D9F82060D6
:10291000C6F34343022B06F00F0840F0A88147F6A8
:10292000F0731E4214D01C2707FB0847C6F30A1693
:102930003246D7F80412484601F083FCD7F8043237
:102940003344C7F80432D7F810321E44C7F8106277
:102950002268936943F010039361206801F0DFFC63
:10296000070707D5204603F042FB2268536903F0AE
:1029700008035361206801F0D2FCC60208D5E9B211
:10298000204603F069FB2268536903F48013536106
:10299000206801F0C4FC800208D5E9B2204603F0AB
:1029A00057FB2268536903F400135361206801F058
:1029B000B6FC410007D5204603F052FB226853695C
:1029C00003F080435361206801F0A9FC42070AD557
:1029D00023685D686B0702D5204603F045FB23683A
:1029E0005A6815435D6007B0BDE8F08FF80738D529
:1029F0005FFA85FB5946206801F0A5FC10F0010F35
:102A0000804621D0216901239942B3600CD13169FC
:102A1000DAF80002C1F31201411ACAF81012DAF80A
:102A200004120844CAF804025946204603F0CEFABC
:102A30002169012908D13DB9D4F80C2222B904F545
:102A40006F72206801F0B8FC18F0080F04D020461F
:102A500003F0B6FA0823B36018F0100F1CBF102360
:102A6000B36001357F0820360AF11C0AACE6039BEF
:102A7000DA0758D55FFA85FB5946206801F06DFCEE
:102A8000C307074620D5D9F834380121A94023EAE5
:102A90000103C9F834380123C8F808302369012B31
:102AA00001BF736C326C9B1873645946204603F067
:102AB00096FA2169012907D135B9E36C23B904F5E8
:102AC0006F72206801F078FC380744BF0823C8F80B
:102AD0000830F90644BF1023C8F808307A0644BF0E
:102AE0004023C8F80830BB0744BF0223C8F80830A9
:102AF0003F0618D523680493F76C336DFF1A336CC7
:102B00009F4228BF1F46049B03F5106307F1030A89
:102B100003EB45134FEA9A0A0593059B9B699BB209
:102B2000534508D82FB3039B5B08013503931C362C
:102B300008F1200858E6326DF36C9342F2D9002B6D
:102B4000F0D0376C04989B1A9F4228BF1F46237C05
:102B500000935A46BBB2716C01F05FFB736C3B444F
:102B60007364336D07F1030A3B444FEA9A0A3365F5
:102B7000D3E7049B012203F5006BD3F83438AA4055
:102B800023EA0203CBF83430CDE702989A60013093
:102B9000C3F808220290203361E6736943F00B0307
:102BA0007361336943F00B03336171E60323E36020
:102BB0004023636100F0F8FB344B354A03449342F1
:102BC000236804D8DA6842F47052DA608CE6314A3D
:102BD000314902448A4203D8DA6842F46052F4E789
:102BE000A0F574022D49A2F510528A4203D8DA6882
:102BF00042F45052E9E7A0F183722949A2F5E74275
:102C00008A4203D8DA6842F44052DEE7254A264970
:102C100002448A4203D8DA6842F43052D5E7234AA4
:102C2000234902448A4203D8DA6842F42052CCE7AE
:102C3000204A214902448A4203D8DA6842F41052F9
:102C4000C3E7A0F1B7721D49A2F558528A4203D8D2
:102C5000DA6842F40052B8E7194A1A4902448A4233
:102C6000DA6894BF42F4E05242F4C052ADE7062B5A
:102C70007FF46EAE082204F56F7148461C2701F000
:102C8000E0FA07FB0847C6F30A165CE6405327FF45
:102C9000FF340C00401E1BFF3F420F007F4F12000D
:102CA0001FD6130060B6E5FE5FE3160000D3CEFE2C
:102CB0003F771B00C05BB3FEBF9121001F7538003A
:102CC000E05459FEDF9C410090F8B833012B10B559
:102CD000044609D0012380F8B833006801F0F7FA00
:102CE000002084F8B80310BD022010BD70B54EB2AC
:102CF000002E04464FF01C0501F07F00B5BF05FB18
:102D0000004105FB0141383101F5FC71C0B2002ED4
:102D1000B8BFC880022BCB704FEAD67504BF002322
:102D20000B7108704D7094F8B8338A60012B09D08C
:102D3000012384F8B833206801F0A2F8002084F859
:102D4000B80370BD022070BD4BB2002B10B54FF020
:102D50001C02044601F07F00B5BF02FB004102FBEC
:102D60000141383101F5FC71DB0F08704B7094F8AC
:102D7000B833012B09D0012384F8B833206801F05F
:102D8000BEF8002084F8B80310BD022010BD38B58D
:102D900001F07F051C2404FB050104FB050401F57B
:102DA000FC71C4F80C320023C4F80422C4F81032B9
:102DB00084F8F93184F8F85103690068012B08BFE1
:102DC000C4F80822DAB21DB901F0BAF9002038BD02
:102DD00001F0F0F8FAE71C2301F00F0103FB0101F9
:102DE000B1F81002704738B501F07F051C2404FBD0
:102DF000050104FB05043831E36400232365012346
:102E0000626484F8393084F8385003690068012B13
:102E100008BFA264DAB21DB901F092F9002038BDF2
:102E200001F0C8F8FAE738B54BB2002B01F07F0586
:102E30004FF01C02B5BF02FB050102FB0101383156
:102E400001F5FC710122DB0FEDB28A700D704B7041
:102E500090F8B833934204460FD080F8B823006846
:102E600001F0FDF92DB904F56F72217C206801F0A5
:102E7000A3FA002084F8B80338BD022038BD38B565
:102E80004BB2002B05464FF01C0201F07F00B5BF8E
:102E900002FB005102FB0151383101F5FC71DB0FDF
:102EA00000248C7008704B7095F8B833012B09D052
:102EB000012385F8B833286801F0F0F985F8B843A4
:102EC000204638BD022038BD006870B5436A21B97C
:102ED00043EA02438362002070BD846A002503EB4D
:102EE00014434E1EECB2B44205F1010506DB3F313E
:102EF00000EB810043EA02434360ECE7403400EB1F
:102F00008404646803EB1443ECE70368002059620F
:102F1000704700002DE9F341044618B9012002B0C2
:102F2000BDE8F0810368DD0710D42368980758D402
:102F300023681A0700F19A8023685B0700F1B880C4
:102F4000A269002A40F019810020E8E7A64B9A68A0
:102F500002F00C02042A07D09A6802F00C02082A38
:102F60000AD15B68590207D59F4B1B689A03DCD5D1
:102F70006368002BD9D1D1E763689B4DB3F5803FDF
:102F800011D12B6843F480332B60FEF733F8964D54
:102F900006462B689B03C8D4FEF72CF8801B6428D8
:102FA000F7D90320BBE7B3F5A02F04D12B6843F476
:102FB00080232B60E5E72A6822F480322A602A68A1
:102FC00022F480222A60002BDFD1FEF713F8064698
:102FD0002B689F03A9D5FEF70DF8801B6428F7D94D
:102FE000DFE7814B9A6812F00C0F07D09A6802F065
:102FF0000C02082A11D15B685E020ED47A4B1A6863
:10300000950702D5E268012A88D11A68216922F061
:10301000F80242EAC1021A608AE7E268734BB2B171
:1030200001221A60FDF7E6FF6F4D06462B689807F0
:1030300007D52B68226923F0F80343EAC2032B600B
:1030400076E7FDF7D7FF801B0228EFD9A9E71A60C2
:10305000FDF7D0FF644D06462B6899077FF568AFF2
:10306000FDF7C8FF801B0228F6D99AE76269604B1A
:103070007AB101221A60FDF7BDFF5B4D06466B6F0A
:103080009F073FF559AFFDF7B5FF801B0228F6D922
:1030900087E71A60FDF7AEFF534D06466B6F980742
:1030A0007FF54AAFFDF7A6FF801B0228F6D978E727
:1030B0004D4B1A6C12F0805228D101921A6C42F0DA
:1030C00080521A641B6C03F080530193019B01260C
:1030D000484D2B68D9051BD5A368434D012B27D13B
:1030E0002B6F43F001032B67FDF784FF3E4D07462E
:1030F00041F288382B6F9B0739D5002E3FF420AF63
:10310000394A136C23F08053136419E70026DFE774
:103110002B6843F480732B60FDF76CFF07462B6828
:10312000DA05D9D4FDF766FFC01B0228F7D938E7C6
:10313000052B04D12B6F43F004032B67D0E72A6FD4
:1031400022F001022A672A6F22F004022A67002B6C
:10315000CAD1FDF74FFF41F2883807462B6F980719
:10316000CBD5FDF747FFC01B4045F7D919E7FDF761
:1031700041FFC01B4045BDD913E71B4DAB6803F0B1
:103180000C03082B3FF4CAAE1B4E0023022A336007
:1031900034D1FDF72FFF07462B6899011ED4226A10
:1031A000E3691343626A43EA8213E26A43EA026311
:1031B000A26A0D4C5208013A43EA02436B600123B4
:1031C0003360FDF717FF054623689A013FF5BCAE53
:1031D000FDF710FF401B0228F6D9E2E6FDF70AFFD3
:1031E000C01B0228D8D9DCE6003802400000474264
:1031F000800E47420070004060004742FDF7FAFE33
:1032000004462B689B017FF59FAEFDF7F3FE001B84
:103210000228F6D9C5E600BF134908B58B6803F04C
:103220000C03042B03D0082B03D0104808BD104812
:1032300008BD4A684B68496813F4800314BF0C4802
:103240000A48C1F3881118BF002302F03F02A1FB16
:103250000001FDF7FDFC044B5B68C3F30143013340
:103260005B00B0FBF3F008BD003802400024F4001E
:1032700000127A002DE9F0410D46044610B90120F4
:10328000BDE8F081444B1A6802F00F028A4228D34D
:1032900021688F072DD4C80740D43F4B1A6802F02D
:1032A0000F02954266D3226851076CD4130707D5E5
:1032B0003A4A2169936823F4604343EAC103936067
:1032C000FFF7AAFF354B364A9B68C3F30313D35C61
:1032D000D840344B18600020FDF742FE0020BDE8C6
:1032E000F081CAB21A701B6803F00F039942C6D16D
:1032F000CEE72A4B11F0040F1EBF9A6842F4E05249
:103300009A600E0742BF9A6842F460429A609A68D7
:10331000A06822F0F00202439A60BCE762681F4B8B
:10332000012A1DD11B6813F4003FA8D01B4EB368BF
:1033300023F003031343B360FDF75CFE41F28838CA
:103340000746B368626803F00C03B3EB820FA4D0A6
:10335000FDF750FEC01B4045F3D90320BDE8F081C6
:10336000911E01291B6802D813F0007FDDE713F0DE
:10337000020FDAE7EAB21A701B6803F00F039D42EE
:103380007FF47DAF8FE70549E0688B6823F4E05355
:1033900003438B608AE700BF003C024000380240D4
:1033A000F29400083C010020014B1868704700BFF0
:1033B0003C010020044B054A9B68C3F38223D35C85
:1033C000034A1068D8407047003802400295000850
:1033D0003C010020044B054A9B68C3F34233D35C95
:1033E000034A1068D8407047003802400295000830
:1033F0003C01002010B50446002836D0002383622B
:1034000090F8513003F0FF021BB980F8502002F011
:10341000BFFA2168A068A269022384F851300B68C2
:1034200023F040030B6063680343E06803432069B3
:10343000034360690343E0690343206A0343A06ACE
:10344000034302F4007003430B60120C636A02F042
:1034500004021A434A60CB6923F40063CB61002065
:103460000123606584F8513010BD012010BD704704
:10347000036830B559689A6802F04105012D85B09E
:10348000044605D14D0603D5036C984705B030BD01
:10349000950704D5080602D5636C2046F5E712F4BB
:1034A000B07FF3D08D06F1D550060FD594F85100BA
:1034B00003284FF0000541D0606D40F004006065C6
:1034C0000095D868009098680090009895060CD5F3
:1034D000606D40F0010060650020029098680290E5
:1034E000186820F0400018600298D00508D5626D79
:1034F00042F008026265002203929A680392039ADE
:10350000626D002AC2D05A6822F0E0025A6001229D
:1035100084F851208A0718D05A68E06C22F0030220
:103520005A6018B10B4B0365FDF733FFA06C002800
:10353000ACD0084B0365FDF72CFFA7E70195DA68CF
:1035400001929B680193019BA0E72046FFF78FFF44
:103550009CE700BF5935000808B5806B0023C3877E
:10356000C386FFF784FF08BD036A23F001030362EB
:10357000036A70B5446882690D6822F073022A43B9
:103580008D6823F002032B430A4DA8420BD1CD686E
:103590008E6923F008032B434D6924F440743543AE
:1035A00023F004032C43446082614A68426303624F
:1035B00070BD00BF00000140036A23F48073036202
:1035C000036A70B54468C2690D6822F073022A4329
:1035D0008D6823F4007343EA05230B4DA8420DD1F7
:1035E000CD688E6923F4006343EA05234D6924F412
:1035F0004054354323F4806344EA05144460C261B7
:103600004A68C263036270BD00000140036A23F48C
:1036100080530362036A30B54468C2690D6822F4BE
:10362000E64242EA05228D6823F4005343EA05335B
:10363000064DA84202BF4D6924F4804444EA851433
:103640004460C2614A680264036230BD0000014008
:103650000268022380F83930136843F001031360D5
:10366000012380F83930002070470000224A0368A7
:1036700090420ED0B0F1804F0BD0A2F57C42904228
:1036800007D002F58062904203D002F5806290423A
:1036900019D14A6823F070031343174A904204D1AA
:1036A000CA6823F44073134318E0B0F1804FF7D099
:1036B000124A9042F4D002F580629042F0D002F5B6
:1036C00080629042ECD00E4A9042E9D002F58062CE
:1036D0009042E5D002F580629042E1D003608B68B1
:1036E000C3620B688362044B984204BF0B69036397
:1036F00001234361704700BF000001400004004007
:103700000040014010B50446A0B190F8393003F0F4
:10371000FF021BB980F8382002F062FA022384F815
:1037200039302068211DFFF7A1FF012384F83930CB
:10373000002010BD012010BD10B50446A0B190F8C6
:10374000393003F0FF021BB980F8382002F032FA5A
:10375000022384F839302068211DFFF787FF0123F9
:1037600084F83930002010BD012010BD036A23F019
:1037700010030362036A70B5446882690D6822F41D
:10378000E64242EA05228D6823F0200343EA05134E
:103790000B4DA8420DD1CD688E6923F0800343EA1A
:1037A00005134D6924F44064354323F0400344EA93
:1037B0008504446082614A688263036270BD00BF11
:1037C0000000014038B590F83830012B04464FF026
:1037D000020025D0012384F8383084F839000C2AFF
:1037E00018D8DFE802F0071717171E1717172F173B
:1037F000171740002068FFF7B7FE236809699A6928
:1038000042F008029A619A6922F004029A619A6968
:103810000A439A610123002084F8393084F8380083
:1038200038BD2068FFF7A2FF236809699A6942F44E
:1038300000629A619A6922F480629A619A6942EA06
:103840000122E6E72068FFF7B7FE23680969DA6915
:1038500042F00802DA61DA6922F00402DA61DA6918
:103860000A43DA61D6E72068FFF7D0FE23680969CA
:10387000DA6942F40062DA61DA6922F48062DA61BC
:10388000DA6942EA0122ECE7036A10B501248C40B0
:1038900023EA04030362036A8A401A43026210BDEA
:1038A00010B5044601220068FFF7EEFF2368064AC0
:1038B000934202BF5A6C42F400425A641A6842F0C2
:1038C00001021A60002010BD0000014090F838305D
:1038D000012B10B54FF0020318D080F8393003687F
:1038E0000C685A68496822F070025A605A6822438C
:1038F0005A609A6822F080029A609A680A439A6035
:10390000012380F83930002380F83830184610BD84
:103910002DE9F0470668C2683369C16923F4405352
:1039200013433361044683680069F26803436069A6
:1039300022F41642034322F00C020B431343F360BC
:103940007369A26923F440731343B1F5004F7361A7
:103950007A4B7CD19E4203D003F580639E4244D1D2
:10396000FFF738FD192505FB00F360684FF0640987
:103970004000B3FBF0F3B3FBF9F34FEA0318FFF792
:1039800029FD636868435B00B0FBF3F7FFF722FD96
:10399000636868435B00B0FBF3F3B3FBF9F309FB27
:1039A0001373DB003233B3FBF9F35B0003F4F877F6
:1039B000FFF710FD626868435200B0FBF2FAFFF7B0
:1039C00009FD636868435B00B0FBF3F3B3FBF9F3F5
:1039D00009FB13A3DB003233B3FBF9F303F0070356
:1039E00043443B44B360BDE8F087FFF7E3FC19258F
:1039F00005FB00F360684FF064094000B3FBF0F38F
:103A0000B3FBF9F34FEA0318FFF7D4FC636868438C
:103A10005B00B0FBF3F7FFF7CDFC636868435B0026
:103A2000B0FBF3F3B3FBF9F309FB1373DB003233A1
:103A3000B3FBF9F35B0003F4F877FFF7BBFC6268B4
:103A400068435200B0FBF2FAFFF7B4FCB9E79E42BC
:103A500002D03B4B9E4240D1FFF7BCFC6768192562
:103A60004FF0640905FB00F3BF00B3FBF7F3B3FBB2
:103A7000F9F31F01FFF7AEFC636868439B00B0FBDE
:103A8000F3F8FFF7A7FC636868439B00B0FBF3F310
:103A9000B3FBF9F309FB13831B013233B3FBF9F3D7
:103AA00003F0F008FFF796FC626868439200B0FBF1
:103AB000F2FAFFF78FFC636868439B00B0FBF3F3F7
:103AC000B3FBF9F309FB13A31B013233B3FBF9F387
:103AD00003F00F0343EA080383E7FFF76BFC676813
:103AE00019254FF0640905FB00F3BF00B3FBF7F3A2
:103AF000B3FBF9F31F01FFF75DFC636868439B00AC
:103B0000B0FBF3F8FFF756FC636868439B00B0FB1B
:103B1000F3F3B3FBF9F309FB13831B013233B3FB5C
:103B2000F9F303F0F008FFF745FC62686843920080
:103B3000B0FBF2FAFFF73EFCBDE700BF001001400A
:103B40000014014010B5044640B390F8393003F03A
:103B5000FF021BB980F8382002F05EF922682423A6
:103B600084F83930D36823F40053D3602046FFF73C
:103B7000CFFE23681A6922F490421A615A6922F032
:103B80002A025A61DA6842F40052DA6000202023E7
:103B9000E06384F8393084F83A3010BD012010BD5C
:103BA00010B5044660B390F8393003F0FF021BB93A
:103BB00080F8382002F030F92268242384F8393064
:103BC000D36823F40053D3602046FFF7A1FE236897
:103BD0001A6922F490421A615A6922F022025A614B
:103BE0005A6942F008025A61DA6842F40052DA6017
:103BF00000202023E06384F8393084F83A3010BD87
:103C0000012010BD84B038B505AD85E80E000A9BD3
:103C1000012B044626D1836B23F480338363C3686E
:103C200023F4840323F04003C360C36823F44013E8
:103C3000C360119B012B02BFC36843F48013C360B0
:103C400000F0DEFB089B012B07D1A36843F00603BD
:103C5000A360A36843F02003A360BDE838400020C0
:103C600004B07047C36843F04003C36000F0C8FB72
:103C70004FF48033A363E5E7836843F00103836077
:103C800000207047836823F00103836000207047A1
:103C900008B5C368012923F0C043C36008D1C368D5
:103CA00043F00053C3603220FDF7AAF9002008BD9D
:103CB0000029F8D1C36843F08043C360F3E70000F4
:103CC00084B02DE9F041044607A880E80E00119E5B
:103CD0000A9FA36B8846A6B943F40013A36300238D
:103CE000C4F8003ED4F80038C4F800380C9B012B0F
:103CF00004F500655ED1099939B9204600F09EF8B7
:103D000007E043F40023A363E9E71946204600F0E7
:103D100095F81021204600F06FF8204600F07EF85C
:103D200000234FF0FF322B6119466B614FF090403A
:103D3000AA614FF0FF0EEB6104F5106243453BD1E1
:103D4000002104F5306208464FF0904E4FF0FF0C12
:103D50008B423ED12B69012F23F480732B6108D154
:103D6000234B2B632B6B43F4803343F003032B6310
:103D70002B6B0023A3616FF0804363611FB9A369BC
:103D800043F01003A361A2691A4B1343A3610D9B77
:103D90001BB1A36943F00803A361012E01BFA3690E
:103DA00043F0804343F00403A361BDE8F0410020E9
:103DB00004B070470321A0E7D2F800C0BCF1000FA7
:103DC000B4BF1060116001331161C2F808E0203205
:103DD000B4E7D2F80080B8F1000FB4BFC2F800E039
:103DE000106001311061C2F808C02032B0E700BF96
:103DF0000001800000383C80890141F02001064A22
:103E00000161013A05D0036913F02003F9D1184686
:103E100070470320704700BF410D03001023064A7E
:103E20000361013A05D0036913F01003F9D1184674
:103E300070470320704700BF410D0300D0F80038E1
:103E40001943C0F800180020704700F50062D0F850
:103E5000080810F0060012D0936803F00603022B46
:103E60000CD0936803F00603062B07D0936803F089
:103E70000603042B14BF0020022070470320704764
:103E800030B54B780C78D0F81C5800F50062012B47
:103E90001BD1A3409BB22B4300F51060D36100EB14
:103EA00044131A6812040ED48A68C8781D68C2F3D5
:103EB0000A0242F0805242F4004242EA804040EA64
:103EC000845028431860002030BD4FF48033A34055
:103ED00000F530602B4300EB4410D36103681B04F2
:103EE000F1D48B68C9780268C3F30A0343F08053A6
:103EF00043F4004343EA814313430360E3E700F0E4
:103F000001B8000070B54B78012B0E4605460978C4
:103F10004FF0200326D100F5106213FB01231A682D
:103F200022F400421A604FF000621A604FF08042A3
:103F30001A601F4A013A01D1032070BD9C6814F039
:103F40008044F7D110212846FFF756FF3178D5F885
:103F50001C2801238B409BB222EA0303C5F81C38BE
:103F6000204670BD00F5306213FB01231A6822F46D
:103F700000421A604FF000621A604FF080421A60EF
:103F80000B4A013AD8D0986810F01000F9D1D5F852
:103F9000043843F48063C5F80438D5F81C384FF46E
:103FA00080328A4023EA0203C5F81C3870BD00BF86
:103FB000410D0300F7B54B780C78012B4B6977D195
:103FC000202600F5106516FB04542669002B38D115
:103FD00026F0FF5626F4C0162661266946F4002610
:103FE00026612669F60CF6042661012A50D10C7868
:103FF0000E6905EB44146661CE78012E0FD1D0F81E
:1040000008480F7814F4807F4FF0200414FB075405
:1040100027680CBF47F0005747F0805727600F789C
:1040200005EB4715012E2C6844F004442C6005D1A3
:1040300000929BB23A46C96800F0EFF8002003B046
:10404000F0BDF60CF604266126698F6826F0FF564F
:1040500026F4C0162661DE19013EB6FBF7F7374E8F
:10406000D4F810E006EAC74646EA0E06266127693C
:10407000C3F312063E432661CE78012E5AD126693B
:1040800026F0C0462661266946F000562661ACE758
:10409000CE78012EB3D0002BAED091F800E0D0F84E
:1040A0003478012404FA0EF43C43C0F83448A3E702
:1040B00000F5306505EB44142569ED0CED04256130
:1040C000256925F0FF5525F4C01525618D68FBB9DC
:1040D0002369C5F312051D432561236943F40023B9
:1040E0002361012A04BFCB686361CB78012B0AD11D
:1040F000D0F8083813F4807F23680CBF43F00053D6
:1041000043F080532360236843F00443236095E722
:104110000A4E27692B44013BB3FBF5F306EAC3467D
:104120003E4326619BB226695D43C5F312053543C4
:104130002561D6E7012AAED159E700BF0000F81F7C
:104140004B78012B70B50B784D6943D1202400F5D5
:10415000106614FB03631C69CDB924F0FF5424F4EA
:10416000C0141C611C6944F400241C611C69E40C2B
:10417000E4041C610D7806EB4513012A1C6844F029
:1041800004441C601BD10A695A61002070BDE40C14
:10419000E4041C611C6924F0FF5424F4C0141C6165
:1041A0008C68A54288BF4C611C6944F400241C61E2
:1041B0004C691D69C4F312042C431C61DAE74B6996
:1041C000002BE2D0D0F834280123AB401343C0F8D1
:1041D0003438DAE700F5306000EB43100369DB0C9C
:1041E000DB040361036923F0FF5323F4C01303616D
:1041F0008B6805B14B61046944F4002404610469CF
:10420000C3F312032343012A036104BFCB68436154
:10421000036843F004430360B7E710B59DF8084016
:104220004CB9033300F5805023F0030300EB023256
:104230000B44994201D1002010BD51F8040B1060CD
:10424000F7E7033222F003020A4400F5805091425E
:1042500001D108467047036841F8043BF7E74B7803
:104260000A78012B4FF020030BD100F5106013FBEF
:1042700002000368002B0BDB036823F0804303601C
:1042800006E000F5306013FB02000368002BF3DA50
:10429000036843F400130360002070474B780A78EA
:1042A000012B0CBF00F5106000F53060202313FBDC
:1042B0000200036823F400130360CB78023B012B58
:1042C0009EBF036843F08053036000207047D0F81E
:1042D000003823F4FE63C0F80038D0F80038090134
:1042E00001F4FE611943C0F800180020704708B5BA
:1042F000D0F8043823F00203C0F804380320FCF798
:104300007FFE002008BD08B5D0F8043843F0020352
:10431000C0F804380320FCF773FE002008BD426992
:10432000806910407047D0F8183800F50060C06907
:104330001840000C7047D0F8183800F50060C069CC
:10434000184080B2704700F5306303EB411100F56F
:1043500000608A6840691040704710B5D0F8104876
:10436000D0F8343800EB4110CB4000F51060DB0191
:104370008068DBB22343184010BD406900F00100A3
:104380007047D0F8003923F4FF6323F00703C0F827
:10439000003900F500639A6802F00602042A02BFA1
:1043A000D0F8002942F00302C0F800295A6842F40C
:1043B00080725A600020704710B50024C0F8104B7E
:1043C000D0F8104B44F40024C0F8104BD0F8104B38
:1043D00044F01804C0F8104BD0F8104B012900F538
:1043E000306344F0C04408BF4FF08023C0F8104B46
:1043F00004BFC0F8142BC0F8003B002010BD000023
:104400000A4B013B01D1032070470269002AF8DA08
:104410000369064A43F001030361013AF3D00369DB
:1044200013F00103F9D11846704700BF410D030096
:104430001FB5FF238DF80C008DF80D10009303AA13
:104440000223D2210248FDF7FDF905B05DF804FB17
:10445000480E002030B587B006AA0B4C02F8090DB3
:10446000FF2500950123D2212046FDF7EBF90095A9
:1044700001230DF11702D2212046FDF7B9FA9DF86C
:10448000170007B030BD00BF480E002013B58021D3
:104490006B2000248DF80740FFF7CAFF80216B20B6
:1044A000FFF7C6FF3220FCF7ABFD03216B20FFF7BF
:1044B000BFFF6B20FFF7CEFF01218DF807006B20B7
:1044C000FFF7B6FF6B20FFF7C5FF8DF807007520DB
:1044D000FFF7C0FF8DF807009DF80730682B1AD151
:1044E00018211B20FFF7A4FF21461C20FFF7A0FF87
:1044F00021463820FFF79CFF21463720FFF798FF21
:1045000001211920FFF794FF1A200221FFF790FFE5
:10451000204602B010BDFF20FBE72DE9F84F04460E
:104520004420FFF797FF82464320FFF793FF4AEAB4
:10453000002A4620FFF78EFF81464520FFF78AFFBD
:1045400049EA00294820FFF785FF80464720FFF70A
:1045500081FF48EA00283C20FFF77CFF07463B200C
:10456000FFF778FF47EA00273E20FFF773FF064674
:104570003D20FFF76FFF46EA00264020FFF76AFF65
:1045800005463F20FFF766FF45EA00254220FFF77A
:1045900061FF83464120FFF75DFF0FFA8AFA4BEA7D
:1045A00000200FFA89F90FFA88F83FB236B22DB21F
:1045B000A081A4F800A0A4F80290A4F80480E780E9
:1045C000268165812046BDE8F88F00004249434BB3
:1045D000D1ED002A424893ED004AD0ED005A414BFC
:1045E000414A93ED016AD3ED026A93ED035AD3ED8C
:1045F000004A70EEE27A10B5E7EE845A3B4CD2EDF9
:10460000007AD4ED001A3A4A77EEC67AB1EE457ACE
:1046100077EEE67A30EE650AC2ED007A82ED017A35
:1046200082ED027AC2ED031A324A82ED000A324A62
:1046300092F90020E4EE274A07EE902AE4EE076A9A
:104640002E4AF8EEE77AA4EE076A24EEA77A26EE61
:10465000A71A82ED007A2A4A82ED001A294AD2ED81
:10466000003A294AE7EE873AA4EE215A87EE232A38
:1046700081EE233AC2ED003A244A82ED002A244A10
:1046800082ED003A234A66EE277A82ED007A224ACA
:10469000B1EE477AA2EE676AA3EE675AC2ED007ADE
:1046A000F0EE627AE0EE037AE7EE024AE7EE036AA2
:1046B000E0EE025AC3ED004A83ED016AC3ED026ADF
:1046C00083ED035AC1ED007A144BC0ED005A70EE31
:1046D000E77AC3ED007A10BD6408002028000020AE
:1046E000880800200C0000201C0000202000002072
:1046F00010080020900800200800002080080020FA
:104700008C080020240000209C080020A80800201D
:104710009808002074080020680800207008002015
:104720004249434BD1ED002A424893ED004AD0ED77
:10473000005A414B414A93ED016AD3ED026A93ED71
:10474000035AD3ED004A70EEE27A10B5E7EE845AD0
:104750003B4CD2ED007AD4ED001A3A4A77EEC67A95
:10476000B1EE457A77EEE67A30EE650AC2ED007A70
:1047700082ED017A82ED027AC2ED031A324A82EDAD
:10478000000A324A92F90020E4EE274A07EE902A06
:10479000E4EE076A2E4AF8EEE77AA4EE076A24EE02
:1047A000A77A26EEA71A82ED007A2A4A82ED001A2D
:1047B000294AD2ED003A294AE7EE873AA4EE215A77
:1047C00087EE232A81EE233AC2ED003A244A82ED95
:1047D000002A244A82ED003A234A66EE277A82EDC7
:1047E000007A224AB1EE477AA2EE676AA3EE675AD0
:1047F000C2ED007AF0EE627AE0EE037AE7EE024A6A
:10480000E7EE036AE0EE025AC3ED004A83ED016A67
:10481000C3ED026A83ED035AC1ED007A144BC0ED7B
:10482000005A70EEE77AC3ED007A10BD64080020EC
:1048300028000020A40800200C0000201C000020FC
:104840002000002010080020900800200800002010
:10485000800800208C080020240000209C080020F4
:10486000A80800209808002074080020680800208C
:10487000A0080020000000002DE9F0412DED0A8B7A
:1048800084B06846FFF749FEBDF90630DFEDA68A21
:10489000DFEDA67ABDF90220A54CA64DA64EA74F86
:1048A00009EE903AA64BF8EEE99A0AEE902AC3ED8B
:1048B000009ABDF90830BDF9042009EE103AF4EE73
:1048C000E89AF1EE10FA58BF9FED9E7A9E4BB8EE33
:1048D000C99A58BF39EEC77A83ED009ABDF90A30FC
:1048E00058BFB7EE00CAB4EEE89A54BFA7EE67CA45
:1048F00029EEA7CA08EE103AF1EE10FA58BFDFED24
:10490000916A924BB8EEC88A58BF79EE666AB4EEE7
:10491000E88A5ABFB7EE007AA6EEE77A29EE277A40
:10492000F1EE10FA58BFDFED876A83ED008A58BFB9
:1049300038EE668ABDF9003028EE278A0AEE102A82
:10494000C7EE087A0BEE103AF8EEEAAA804BC4EDF7
:1049500000AAB8EECBBAB8EECAAA17EE900A83ED59
:1049600000BA85ED00AA9846FBF7F6FD41EC100B66
:1049700004F0D6FB002251EC100B764BFBF740FE07
:1049800065A3D3E90023FBF765FFFCF711F9CCEE33
:10499000087A30600BEE900A17EE900AFBF7DCFD08
:1049A00041EC100B04F0BCFB002251EC100B694BE6
:1049B0009FED698AFBF724FE57A3D3E90023FBF799
:1049C00049FFFCF7F5F8F4EEE89A07EE900AF1EEED
:1049D00010FAB4EEE89AC8BFF1EE677AF1EE10FA79
:1049E000C8BFF1EE6BBAB4EEC8BAC8BFC6ED00BA24
:1049F000F1EE10FAC7ED007A0ED51BEE100AFBF7A8
:104A0000ABFD47A3D3E90023FBF724FFFCF7D0F865
:104A100080F00040C8F80000D8ED007AF4EEC87AC3
:104A2000F1EE10FA10DD9FED4D7A77EE677A17EE12
:104A3000900AFBF791FD3AA3D3E90023FBF70AFFA5
:104A4000FCF7B6F8C8F80000F4EEC8AAF1EE10FAC8
:104A50000DD51AEE900AFBF77FFD31A3D3E90023B1
:104A6000FBF7F8FEFCF7A4F880F000402060D4EDDE
:104A7000007AF4EEC87AF1EE10FA0FDD9FED377A86
:104A800077EE677A17EE900AFBF766FD24A3D3E969
:104A90000023FBF7DFFEFCF78BF82060B4EEC8AA1A
:104AA000F1EE10FA0DD51AEE100AFBF755FD1CA316
:104AB000D3E90023FBF7CEFEFCF77AF880F0004044
:104AC0002860D5ED007AF4EEC87AF1EE10FA0FDD29
:104AD0009FED227A77EE677A17EE900AFBF73CFD9E
:104AE0000FA3D3E90023FBF7B5FEFCF761F82860BC
:104AF000D8ED000A96ED000AFFF768FDD4ED000A34
:104B000097ED000A04B0BDEC0A8BBDE8F041FFF759
:104B100007BE00BFAFF300801F85EB51B81E0940F0
:104B2000666666666666404000F8FF4600008038AC
:104B3000A0080020780800206C08002094080020BD
:104B400084080020000040477C0800206008002006
:104B500070080020008066400000004700FF7F478B
:104B6000D0F818321BB10020C3F81402704702209D
:104B70007047D0F81C3210B5D0F818425BB194F8E9
:104B80000002FF2807D09B6894F80122214698472D
:104B9000FF2384F80032002010BD0000432303806F
:104BA000004870476400002043230380004870479A
:104BB000A80000204323038000487047F80000202D
:104BC0000A23038000487047EC00002038B50546F2
:104BD000D0F8184201F006FBD5F81832C4F80C02E0
:104BE0004BB1D5F81C32D4F80402DB6804F503712C
:104BF0009847002038BD022038BD0000F8B50F7876
:104C000017F0600306460C4623D0202B19D1CA8822
:104C10004B78C2B13906D0F818520BD5D0F81C1217
:104C200018468F682946B847E2882946304600F082
:104C300090FB06E085F8003285F80122294600F055
:104C40009DFB0020F8BDD0F81C0284681846A047E0
:104C5000F7E74B780A2BF4D101220149E7E700BFBF
:104C60002008002010B58121044601F053FA0121EB
:104C7000204601F04FFA8221204601F04BFAD4F889
:104C8000183253B1D4F81C325B689847D4F8180234
:104C900001F056FB0023C4F81832002010BD0000BC
:104CA00038B5037C044653BB4FF4007302228121C4
:104CB00001F020FA4FF4007302220121204601F096
:104CC00019FA082303228221204601F013FAD4F8AE
:104CD0001C320F4D1B68C4F8185298470023C5F8C2
:104CE0001432C5F81832237C83B94FF40073D5F819
:104CF00004220121204601F067FA002038BD40233C
:104D00000222812101F0F6F94023D5E74023EEE7A6
:104D1000AC08002019B1C0F81C1200207047022016
:104D20007047D0F818320020C3F80812C3F81022D8
:104D30007047D0F818320020C3F804127047D0F83A
:104D4000182210B572B1D2F81442012364B9C2F826
:104D500014328121B2F81032D2F8082201F026FA7A
:104D6000204610BD022010BD184610BDD0F81822F4
:104D700010B562B1047C44B94FF40073D2F8042238
:104D8000012101F021FA002010BD4023F6E70220A6
:104D900010BD08B580B1D0F8143213B10023C0F8AB
:104DA000143209B1C0F81012012380F8FC310270EE
:104DB00001F05EF9002008BD022008BD19B1C0F85D
:104DC0001412002070470220704708B501F084F9E2
:104DD000002008BD08B5D0F814320BB9022008BD78
:104DE0001B6898470028F9D108BD08B5D0F81432DF
:104DF0005B689847002008BD38B5044600F5027589
:104E0000284600F076FA012394F80812C4F8F43129
:104E1000B4F80E32C4F8F83101F01F03012B0ED0A4
:104E200007D3022B10D001F08001204601F080F959
:104E300003E02946204600F0E7F8002038BD294667
:104E4000204600F0DBF9F8E72946204600F0EEF9AD
:104E5000F3E738B50446154611BBD0F8F431032BFF
:104E60000FD1D0F80C31D0F8102193420BD99B1AF6
:104E70009A4228BF1A46C0F80C3192B2294600F077
:104E80008CFA002038BDD0F814321B6923B190F899
:104E9000FC21032A00D19847204600F086FAF0E76B
:104EA000D0F814329B69002BEBD090F8FC21032A38
:104EB000E7D19847E5E770B5134604460E4600294A
:104EC0003DD1D0F8F421022A0FD1C569026A95427A
:104ED00014D9AA1AC261194692B200F047FA3346B1
:104EE0001A461946204601F06FF994F80032012B5A
:104EF00002D1002384F80032002070BD8369B3FB27
:104F0000F2F502FB153565B99A420AD8D0F8F821B6
:104F1000934206D22A4600F029FAC4F8F8512B46EB
:104F2000DEE7D4F81432DB682BB194F8FC21032AB5
:104F300001D120469847204600F042FAD5E7D0F844
:104F400014325B69002BD7D090F8FC21032AD3D10F
:104F50009847D1E738B50022044611464025402342
:104F600001F0C8F82B46C4F81051002280212046D9
:104F700001F0C0F8012384F8FC31D4F8183225621E
:104F80002BB1D4F8143221795B6820469847002071
:104F900038BD01740020704790F8FC3180F8FD3175
:104FA000042380F8FC310020704790F8FD3180F830
:104FB000FC310020704708B590F8FC21032A04D189
:104FC000D0F81432DB6903B19847002008BD0020F7
:104FD0007047002070470020704708B5012280F814
:104FE000FC21D0F81422017952689047002008BDB6
:104FF00010B58021044601F09BF820460021BDE851
:10500000104001F095B8000037B54B7804460D46C6
:10501000092B79D8DFE813F0C900E5007800D90042
:1050200078006D000A007800B9008D004B881A0ADC
:10503000013A062A68D8DFE802F0041C29676749AC
:105040005200D0F810321B68207C0DF10601984701
:10505000BDF80620002A67D0EB88002B64D09A4266
:1050600028BF1A46ADF806200146204600F071F927
:105070005AE0027CD0F8143232B99B6A0DF1060076
:10508000984702234370E3E7DB6AF7E7DBB2052BBF
:105090003AD8DFE803F003070B0F1317D0F81032EC
:1050A0005B68D1E7D0F810329B68CDE7D0F81032BA
:1050B000DB68C9E7D0F810321B69C5E7D0F81032B9
:1050C0005B69C1E7D0F810329B69BDE7037CDBB9AF
:1050D000D0F814320DF106005B6B9847B8E7037CFB
:1050E00093B9D0F814320DF106001B6B98470723D3
:1050F000C8E78B8843B9CB8833B990F8FC318D78F9
:10510000032B05F07F0503D12046FFF771FF0BE06D
:1051100080F8FE51294601F03BF8204600F045F9A1
:105120002DB1022384F8FC31002003B030BD0123EF
:10513000F8E78978304D01292970E5D890F8FC31DD
:10514000022B0CD0032BDFD1B1B9022380F8FC3144
:105150004160FFF74AFE204600F027F9E4E7002906
:10516000F9D001210323416080F8FC312046FFF78C
:1051700031FE0228EFD1C7E741680129EBD0C9B25F
:10518000FFF733FE29786160F0E7CA88012ABBD1B6
:1051900090F8FC31022B03D0032BB5D1011D64E73D
:1051A0000146002341F8083F5FE790F8FC31023BDD
:1051B000012BA9D80123C360D0F804320BB103231B
:1051C000C360022204F10C014FE74B88012BABD1E5
:1051D000C4F80432D4F8143229469B682046984714
:1051E000B9E790F8FC31023B012B8DD84B88012B9D
:1051F0009AD10023ECE700BF2108002038B590F8D1
:10520000FC31032B04460D460DD10B79012B0AD836
:10521000D0F814329B689847EB8813B9204600F009
:10522000C4F8002038BDFFF7E3FEFAE770B50A784E
:105230008E8802F06002202A04460D46F3B205D1A2
:10524000D0F814329B689847002070BD4A78012A34
:105250001CD02AD3032AF7D190F8FC21022A40D08F
:10526000032A02D0FFF7C4FEEEE74A8822B95E06A1
:1052700002D0194600F05CFFD4F8143229469B682E
:1052800020469847204600F090F8DDE790F8FC2192
:10529000022A26D0032AE5D14A88002AD4D1590609
:1052A000F0D0194600F052FFE6E790F8FC21022A00
:1052B00017D0032AD6D103F07F0516F0800F00EB3C
:1052C0000515194614BF143505F5827500F04CFF1D
:1052D00068B101232B6002222946204600F039F8EC
:1052E000B2E75A06B0D0194600F022FFACE72860BA
:1052F000F1E70B7803704B784370CA788B7803EB37
:10530000022343804A790B7903EB02238380CA7915
:105310008B7903EB0223C380704730B588B1054613
:105320002B1A15F8014BDBB2002CF9D15B000233CC
:1053300013800B7003234B700138022310F8015FB8
:1053400005B930BD5A1CD2B2CD540233DBB28C54F5
:10535000F4E710B513460222C0F8F42183610A462F
:10536000C361002100F022FF002010BD08B51346E4
:105370000A46002100F01AFF002008BD10B51346B0
:105380000322C0F8F421C0F808310A46C0F80C31F5
:10539000002100F019FF002010BD08B513460A4691
:1053A000002100F011FF002008BD08B50423C0F85B
:1053B000F43100231A46194600F0F8FE002008BD1B
:1053C00008B50523C0F8F43100231A46194600F049
:1053D000FBFE002008BD00001FB51548154B1649FF
:1053E00081624FF4803C012280E808100023836032
:1053F000036182610362C362C360C261036342618D
:10540000FBF712FE18B152210C4800F04DFA0223AE
:10541000009369460123064801930293FBF7A8FE17
:1054200018B15C21054800F03FFA05B05DF804FBB7
:10543000AC0D0020002001400100000FB8940008CE
:105440007FB502680D4B9A4215D1002103F58C33CC
:1054500000915A6C0A4842F480725A645B6C039162
:1054600003F480730093009B0423019301A9032399
:105470000293FBF7A1FF07B05DF804FB0020014099
:10548000000002402DE9F0438BB000243D4B009416
:105490001A6B3D4DDFF8FC90DFF8FC8042F0800293
:1054A0001A631A6B02F080020092009A01941A6B40
:1054B00042F004021A631A6B02F004020192019A8C
:1054C00002941A6B42F001021A631A6B02F0010295
:1054D0000292029A03941A6B42F002021A631A6B48
:1054E00002F002020392039A04941A6B42F008023B
:1054F0001A631B6B03F008030493224628464FF4FB
:105500004041049BFCF72EF8224648464FF4806148
:10551000FCF728F8224640460421FCF723F8012630
:105520004FF4404305A9284605934FF4806706963B
:1055300007940894FBF740FF022305A94846079308
:10554000059706960894FBF737FF059705A90F4FB7
:105550000F4806970794FBF72FFF042305A9404641
:105560000593069607940894FBF726FF202305A9C8
:105570002846059306970794FBF71EFF0BB0BDE87E
:10558000F08300BF00380240000402400000111008
:105590000008024000000240000C02400D480E4985
:1055A00008B5D02249F6404380E80A00C2600023D3
:1055B0004FF480428360026143618361C36103628F
:1055C000FCF7D2F828B14D210448BDE8084000F0AE
:1055D0006BB908BD480E002000540040C594000877
:1055E00008B50D480D4BDFF83CE04FF4804280E8F1
:1055F000084000238360C360026143618361C3612B
:105600000362FCF7B1F828B160210548BDE8084005
:1056100000F04AB908BD00BFF40D0020005C004056
:10562000C5940008A0860100F0B503682C4A934297
:1056300089B02BD1C0230393122304930123059334
:105640000323069303A90423264807930024FBF7AA
:10565000B3FE254B01941A6C42F400121A641B6CC1
:1056600003F400132246214601931F20019BFBF700
:1056700029FE1F20FBF75AFE202022462146FBF779
:1056800021FE2020FBF752FE09B0F0BD174A9342DD
:10569000FAD14FF40073122701260325042403A92D
:1056A000134803930497059606950794FBF784FE29
:1056B0004FF4807303A90F4803930497059606954A
:1056C0000794FBF779FE00230293074B1A6C42F410
:1056D00000021A641B6C03F400030293029BD3E7DD
:1056E000005400400004024000380240005C0040CA
:1056F000000802400000024030B595B0264B002162
:1057000001911A6C42F080521A641B6C03F08053B2
:105710000193019B214B02911A6842F440421A60A6
:105720001B6803F440430293029B012308934FF448
:10573000803309934FF48003022504240F9308A8B3
:1057400060230E951094119312951394FDF7E2FBCC
:1057500000B1FEE70F23039305904FF480530790A9
:10576000032103A804950693FDF784FD054600B1C7
:10577000FEE7FDF719FE4FF47A73B0FBF3F0FBF789
:10578000E1FD2046FBF7F4FD2A4629464FF0FF30A5
:10579000FBF798FD15B030BD0038024000700040A6
:1057A0002DE9F047ADF5026DFBF7FEFBFFF7A4FF17
:1057B000FFF768FEFFF710FEFFF7F0FEFFF710FFA0
:1057C00000F074F800F098F800F0BCF800F054FA1B
:1057D00000F0AAFA00F0E0FA00F0FEFA00F066FB32
:1057E0002C48FDF735FF00212A48FEF759F804211F
:1057F0002848FEF755F808212648FEF751F80C21F5
:105800002448FEF74DF8FEF741FE0028FBD1224C5C
:10581000224E6369224FDFF88CA043F4004363619A
:10582000636923F4004363610120FBF7E9FB04A8EB
:10583000FEF773FEBDF81C304FF4AA721BB293FB47
:10584000F2F32433DBB28DF80F30636943F4004385
:105850006361FFF711F80A22B5FBF2F302FB135361
:10586000B3B93068FAF778FE804638688946FAF7A7
:1058700073FE4246CDE900014B46514608A800F0B0
:1058800099FF08A8FAF7ACFC81B208A800F050FB19
:105890000135C5E7E00F0020000402408808002021
:1058A000A4080020D2940008FEE7000008B50F48C5
:1058B0000F4B4FF4827E80E8084000238360C36072
:1058C000036143614FF48022C361036243628362D8
:1058D0000A238261C362FDF78DFD28B1512105487D
:1058E000BDE80840FFF7E0BF08BD00BF4C0F002037
:1058F00000300140E594000808B50F480F4B4FF405
:10590000827E80E8084000238360C36003614361B6
:105910004FF48022C3610362436283620A2382617F
:10592000C362FDF767FD28B167210548BDE808405F
:10593000FFF7BABF08BD00BF9C0E00200038004032
:10594000E594000808B50F480F4B4FF4827E80E8BD
:10595000084000238360C360036143614FF48022E9
:10596000C3610362436283620A238261C362FDF7FB
:1059700041FD28B17D210548BDE80840FFF794BFEF
:1059800008BD00BFF40E0020003C0040E594000874
:10599000F0B50368414A934289B01AD10021404BC7
:1059A00000915A6C3F4842F480525A645B6C0591F6
:1059B00003F480530093009BF0230393022304938A
:1059C000032306930523079303A9FBF7F5FC09B00E
:1059D000F0BD354A934223D10024314B01941A6C17
:1059E000324842F480421A641B6C059403F48043ED
:1059F0000193019B0C230DEB0301022703260525D0
:105A00000393049706960795FBF7D6FC4FF40853CB
:105A10000393049705940696079503A92448D4E7B1
:105A2000244A9342D3D100241D4B02941A6C20487F
:105A300042F400421A641B6C059403F40043029381
:105A4000029B4FF4805302260325039303A90723E7
:105A50000793062704960695FBF7AEFC4FF4004328
:105A600003A9104803930496059406950797FBF73E
:105A7000A3FC4FF4C05303A90C4803930496059468
:105A800006950797FBF798FC224621463320FBF743
:105A900019FC3320FBF74AFC99E700BF00300140B6
:105AA0000038024000000240003800400008024078
:105AB00000040240003C004008B50320FBF7F0FB67
:105AC000002211466FF00B00FBF7FCFB0022114691
:105AD0006FF00A00FBF7F6FB002211466FF0090099
